:100000000C9446010C942F080C9460080C949108F1
:100010000C94C2080C94F3080C9424090C94550910
:100020000C9486090C94E72C0C94152D0C94432DFC
:100030000C9473010C9473010C9473010C94730170
:100040000C9473010C9473010C9473010C94730160
:100050000C9473010C9473010C9473010C94B70904
:100060000C9473010C94AC020C94A8030C947301CF
:100070000C9473010C9473010C9473010C94730130
:100080000C9473010C9473010C9473010C94730120
:100090000C94EB020C94E7030C9473010C94FE2A6D
:1000A0000C9473010C9473010C9473010C94730100
:1000B0000C9473010C9473010C9473010C947301F0
:1000C0000C9473010C9473010C9447380C942A031C
:1000D0000C9426040C9473010C9469030C9465042D
:1000E0000C94730107634236B79BD8A71A39685638
:1000F00018AEBAAB558C1D3CB7CC5763BD6DEDFD4A
:10010000753EF6177231BF000000803F0800000006
:10011000BE922449123EABAAAA2ABECDCCCC4C3EFC
:1001200000000080BEABAAAAAA3E00000000BF00EB
:100130000000803F0000000000084178D3BB4387E7
:10014000D1133D190E3CC3BD4282AD2B3E68EC82FB
:1001500076BED98FE1A93E4C80EFFFBE01C4FF7F80
:100160003F000000000000002100240027002A00BA
:100170002D003000330001010000040107010A01D5
:1001800000002200250028002B002E003100340042
:1001900002010000050108010B01000020002300FE
:1001A000260029002C002F0032000001000003016E
:1001B00006010901050505050705080808080202EA
:1001C00002020A0A080804040404010101010101F1
:1001D00001010303030303030303040707070C0CD4
:1001E0000C0C0C0C0C0C020202020606060606069B
:1001F00006060B0B0B0B0B0B0B0B01021020200840
:100200000810204010204080020102010804020171
:1002100001020408102040808040201008040201E0
:100220008004020180402010080402010804020139
:1002300001020408102040800102040810204080C0
:100240000000090A02080B0C0D0706030401000058
:10025000000000000000000000000000000000009E
:1002600000000000000000000000000011100F005E
:10027000000000000000000000000000000000007E
:10028000000000000000D5050B07FF3211241FBE3F
:10029000CFEFD1E2DEBFCDBF00E00CBF13E0A0E0A6
:1002A000B2E0E2EAF8E700E00BBF02C007900D926F
:1002B000A838B107D9F71BBE18E0A8E8B3E001C021
:1002C0001D92A53EB107E1F712E0CCE8D2E004C0F0
:1002D0002297FE010E944B3CC638D107C9F70E9405
:1002E0007E370C944F3C0C9400000F931F93CF93D8
:1002F000DF93689F8001699F100D789F100D112476
:10030000C8010E949101EC01009729F060E070E0C3
:10031000A8010E949C02CE01DF91CF911F910F9105
:100320000895CF93DF93BC018230910510F462E011
:1003300070E0A091E308B091E408ED01E0E0F0E0A6
:1003400040E050E021C0888199818617970769F4C1
:100350008A819B81309719F09383828304C09093A4
:10036000E4088093E308FE0134C06817790738F485
:100370004115510519F08417950708F4AC01FE01E9
:100380008A819B819C01E9012097E9F6411551057D
:10039000A9F1CA01861B970B049708F4BA01E0E0A3
:1003A000F0E02AC08D919C91119784179507F9F47C
:1003B0006417750781F412968D919C91139730976D
:1003C00019F09383828304C09093E4088093E30838
:1003D000FD0132964CC0CA01861B970BFD01E80F48
:1003E000F91F6193719302978D939C9340C0FD0117
:1003F000828193819C01D9011097A1F68091E10837
:100400009091E208892B41F48091FF0290910003C2
:100410009093E2088093E108409101035091020318
:100420004115510541F44DB75EB78091FD029091A1
:10043000FE02481B590B2091E1083091E208CA01E5
:10044000821B930B8617970780F0AB014E5F5F4FBF
:100450008417950750F0420F531F5093E2084093C2
:10046000E108F9016193719302C0E0E0F0E0CF018F
:10047000DF91CF910895CF93DF93009709F450C097
:10048000EC0122971B821A82A091E308B091E40844
:10049000109709F140E050E0AC17BD0708F1BB83AD
:1004A000AA83FE0121913191E20FF31FAE17BF071E
:1004B00079F48D919C911197280F391F2E5F3F4F32
:1004C0003983288312968D919C9113979B838A83FD
:1004D0004115510571F4D093E408C093E30820C09E
:1004E00012968D919C911397AD01009711F0DC014C
:1004F000D3CFFA01D383C28321913191E20FF31F4D
:10050000CE17DF0769F488819981280F391F2E5F84
:100510003F4FFA01318320838A819B8193838283B9
:10052000DF91CF910895FB01DC0102C001900D9293
:1005300041505040D8F70895DC0101C06D934150FF
:100540005040E0F70895FB01DC018D910190801986
:100550000110D9F3990B08951F920F920FB60F92C5
:100560000BB60F9211242F933F934F938F939F932A
:10057000EF93FF938091C00082FD1DC04091C600A3
:100580002091C8033091C9032F5F3F4F2F73307004
:100590008091CA039091CB032817390771F0E0913D
:1005A000C803F091C903E857FC4F40833093C90357
:1005B0002093C80302C08091C600FF91EF919F91E4
:1005C0008F914F913F912F910F900BBE0F900FBEC7
:1005D0000F901F9018951F920F920FB60F920BB6A7
:1005E0000F9211242F933F934F938F939F93EF93E9
:1005F000FF938091C80082FD1DC04091CE002091E4
:100600005004309151042F5F3F4F2F733070809111
:100610005204909153042817390771F0E091500467
:10062000F0915104E05FFB4F4083309351042093DD
:10063000500402C08091CE00FF91EF919F918F9165
:100640004F913F912F910F900BBE0F900FBE0F90C7
:100650001F9018951F920F920FB60F920BB60F9224
:1006600011242F933F934F938F939F93EF93FF9377
:100670008091D00082FD1DC04091D6002091D80409
:100680003091D9042F5F3F4F2F7330708091DA047F
:100690009091DB042817390771F0E091D804F091AC
:1006A000D904E856FB4F40833093D9042093D804F3
:1006B00002C08091D600FF91EF919F918F914F9151
:1006C0003F912F910F900BBE0F900FBE0F901F9078
:1006D00018951F920F920FB60F920BB60F9211241E
:1006E0002F933F934F938F939F93EF93FF9380911B
:1006F000300182FD1DC0409136012091600530918E
:1007000061052F5F3F4F2F7330708091620590918C
:1007100063052817390771F0E0916005F0916105D4
:10072000E05EFA4F4083309361052093600502C07C
:1007300080913601FF91EF919F918F914F913F9161
:100740002F910F900BBE0F900FBE0F901F9018951A
:100750001F920F920FB60F920BB60F9211242F9388
:100760003F938F939F93EF93FF9320910C043091CD
:100770000D0480910E0490910F042817390731F46D
:100780008091C1008F7D8093C10014C0E0910E0460
:10079000F0910F04E453FC4F208180910E0490915E
:1007A0000F0401968F73907090930F0480930E0442
:1007B0002093C600FF91EF919F918F913F912F91D0
:1007C0000F900BBE0F900FBE0F901F9018951F92A9
:1007D0000F920FB60F920BB60F9211242F933F93E7
:1007E0008F939F93EF93FF932091940430919504FE
:1007F00080919604909197042817390731F48091DD
:10080000C9008F7D8093C90014C0E0919604F091D7
:100810009704EC5AFB4F20818091960490919704A5
:1008200001968F7390709093970480939604209311
:10083000CE00FF91EF919F918F913F912F910F905B
:100840000BBE0F900FBE0F901F9018951F920F9226
:100850000FB60F920BB60F9211242F933F938F93E5
:100860009F93EF93FF9320911C0530911D0580917C
:100870001E0590911F052817390731F48091D1008A
:100880008F7D8093D10014C0E0911E05F0911F056B
:10089000E452FB4F208180911E0590911F05019627
:1008A0008F73907090931F0580931E052093D60040
:1008B000FF91EF919F918F913F912F910F900BBEE0
:1008C0000F900FBE0F901F9018951F920F920FB6AA
:1008D0000F920BB60F9211242F933F938F939F93F8
:1008E000EF93FF932091A4053091A5058091A60573
:1008F0009091A7052817390731F4809131018F7D38
:100900008093310114C0E091A605F091A705EC5940
:10091000FA4F20818091A6059091A70501968F73CB
:1009200090709093A7058093A60520933601FF91C0
:10093000EF919F918F913F912F910F900BBE0F9050
:100940000FBE0F901F901895AF92BF92DF92EF925B
:10095000FF920F931F93CF93DF93EC017A018B01EA
:10096000DD24403081EE580780E0680780E078079A
:1009700011F0DD24D39491E0A92EB12CEC89FD89EE
:10098000DD2069F0C50108A002C0880F991F0A94F4
:10099000E2F7808360E079E08DE390E005C01082AB
:1009A00060E874E88EE190E0A80197010E94F83BAE
:1009B00021503040404050405695479537952795F7
:1009C00080E12030380720F0DD2011F0DD24D6CF83
:1009D000E889F9893083EA89FB89208319A2EE89A5
:1009E000FF89408121E030E0C9010C8C02C0880FF2
:1009F000991F0A94E2F7482B4083EE89FF894081D2
:100A0000C9010D8C02C0880F991F0A94E2F7482B88
:100A10004083EE89FF894081C9010E8C02C0880F96
:100A2000991F0A94E2F7482B4083EE89FF89808161
:100A30000F8C02C0220F331F0A94E2F7209528235F
:100A40002083DF91CF911F910F91FF90EF90DF9066
:100A5000BF90AF900895DC011C96ED91FC911D971D
:100A6000E05CFF4F2191319180819181281B390BEE
:100A70002F733070C9010895DC011C96ED91FC9133
:100A80001D97E05CFF4F20813181E054F040DF0191
:100A9000AE5BBF4F8D919C9111972817390719F4C0
:100AA0002FEF3FEF07C08D919C91E80FF91F8081D8
:100AB000282F30E0C9010895DC011C96ED91FC91CE
:100AC0001D97E05CFF4F20813181E054F040DF0151
:100AD000AE5BBF4F8D919C9111972817390719F480
:100AE0002FEF3FEF10C08D919C911197E80FF91FE8
:100AF00020818D919C91119701968F739070119622
:100B00009C938E9330E0C9010895DC0191968C91FD
:100B10009197882339F05496ED91FC9155978081F7
:100B200086FFF9CF91961C920895CF93DF93EC0145
:100B3000EE85FF85E05CFF4F20813181E054F0407D
:100B40002F5F3F4F2F733070DF01AE5BBF4F8D9132
:100B50009C91119728173907D1F3E05CFF4F8081F2
:100B60009181E054F040E80FF91F6083EE85FF8526
:100B7000E05CFF4F31832083EE89FF89208181E093
:100B800090E00F8C02C0880F991F0A94E2F7282B7F
:100B9000208381E089A3EC89FD8980818064808342
:100BA00081E090E0DF91CF9108951F931092AB0503
:100BB0001092AA0528EE33E040E050E02093AC0507
:100BC0003093AD054093AE055093AF0563E673E0F7
:100BD0007093A9056093A80588E893E09093B50504
:100BE0008093B4058CEC93E09093B7058093B605A1
:100BF00085EC90E09093B9058093B80584EC90E083
:100C00009093BB058093BA0580EC90E09093BD056E
:100C10008093BC0581EC90E09093BF058093BE0566
:100C200082EC90E09093C1058093C00586EC90E043
:100C30009093C3058093C20514E01093C405B3E0FC
:100C4000B093C505A7E0A093C605F5E0F093C705EE
:100C5000E1E0E093C8051092CD051092CC052093F9
:100C6000CE053093CF054093D0055093D1057093B6
:100C7000CB056093CA0580E194E09093D7058093FB
:100C8000D60584E594E09093D9058093D8058DEC42
:100C900090E09093DB058093DA058CEC90E09093E4
:100CA000DD058093DC0588EC90E09093DF05809370
:100CB000DE0589EC90E09093E1058093E0058AECF5
:100CC00090E09093E3058093E2058EEC90E09093A2
:100CD000E5058093E4051093E605B093E705A0933E
:100CE000E805F093E905E093EA051092EF0510920C
:100CF000EE052093F0053093F1054093F2055093F3
:100D0000F3057093ED056093EC0588E994E090930A
:100D1000F9058093F8058CED94E09093FB058093A2
:100D2000FA0585ED90E09093FD058093FC0584ED38
:100D300090E09093FF058093FE0580ED90E0909306
:100D400001068093000681ED90E090930306809366
:100D5000020682ED90E0909305068093040686EDEE
:100D600090E0909307068093060610930806B093D0
:100D70000906A0930A06F0930B06E0930C06109266
:100D8000110610921006209312063093130640931A
:100D900014065093150670930F0660930E0680E2BA
:100DA00095E090931B0680931A0684E695E0909355
:100DB0001D0680931C0685E391E090931F068093A7
:100DC0001E0684E391E0909321068093200680E341
:100DD00091E0909323068093220681E391E0909323
:100DE00025068093240682E391E090932706809362
:100DF000260686E391E090932906809328061093B7
:100E00002A06B0932B06A0932C06F0932D06E093B0
:100E10002E061F91089583E793E090933106809307
:100E20003006109232061092330610923406109259
:100E3000350608958F929F92AF92BF92CF92DF9224
:100E4000EF92FF920F931F93CF93DF934C016B01AF
:100E50007C01AA24BB24C0E0D0E0C601F701628176
:100E60004AE050E00E941D088C01C6016EE20E941B
:100E70008607080F191FA00EB11E21960894E11CC9
:100E8000F11CC330D10549F7C601F40165814AE080
:100E900050E00E941D089501280F391FC901DF91FC
:100EA000CF911F910F91FF90EF90DF90CF90BF9067
:100EB000AF909F908F900895CF92DF92EF92FF9224
:100EC0000F931F93CF93DF937C016B018A01C0E0E6
:100ED000D0E00FC0D6016D916D01D701ED91FC916D
:100EE0000190F081E02DC7011995C80FD91F01505D
:100EF00010400115110571F7CE01DF91CF911F91BF
:100F00000F91FF90EF90DF90CF900895DC01ED916D
:100F1000FC910190F081E02D19950895CF93DF9316
:100F2000EC016115710519F420E030E00FC0DB0120
:100F30000D900020E9F71197A61BB70BE881F98106
:100F40000280F381E02DAD0119959C01C901DF916B
:100F5000CF9108954F925F927F928F929F92AF921E
:100F6000BF92CF92DF92EF92FF920F931F93DF9386
:100F7000CF93CDB7DEB7A1970FB6F894DEBF0FBE03
:100F8000CDBF2C01742ECB01223008F42AE019A227
:100F900031E2C32ED12CCC0EDD1E822E9924AA2440
:100FA000BB24672D752FA50194010E94F83B7901A0
:100FB0008A01C801B701A50194010E94C63B472DD3
:100FC000461B0894C108D1084A3014F4405D01C0A2
:100FD000495CF6014083E114F1040105110521F09B
:100FE0007E2C5F2DC801DDCFC201B6010E948E07A5
:100FF000A1960FB6F894DEBF0FBECDBFCF91DF91A3
:101000001F910F91FF90EF90DF90CF90BF90AF9026
:101010009F908F907F905F904F900895DC012115F5
:10102000310541F4ED91FC910190F081E02D642FA8
:10103000199508950E94AA070895EF92FF920F93C1
:101040001F939A01E62EFF2400E010E0B801A701EB
:101050000E940E081F910F91FF90EF9008951F922C
:101060000F920FB60F920BB60F9211242F933F934E
:101070004F935F936F937F938F939F93AF93BF93A0
:10108000EF93FF9380913A0690913B06892B29F0CC
:10109000E0913A06F0913B061995FF91EF91BF91CF
:1010A000AF919F918F917F916F915F914F913F9100
:1010B0002F910F900BBE0F900FBE0F901F901895A1
:1010C0001F920F920FB60F920BB60F9211242F930F
:1010D0003F934F935F936F937F938F939F93AF93C0
:1010E000BF93EF93FF9380913C0690913D06892B2F
:1010F00029F0E0913C06F0913D061995FF91EF91A2
:10110000BF91AF919F918F917F916F915F914F911F
:101110003F912F910F900BBE0F900FBE0F901F901D
:1011200018951F920F920FB60F920BB60F921124C3
:101130002F933F934F935F936F937F938F939F93DF
:10114000AF93BF93EF93FF9380913E0690913F063C
:10115000892B29F0E0913E06F0913F061995FF9109
:10116000EF91BF91AF919F918F917F916F915F911F
:101170004F913F912F910F900BBE0F900FBE0F908C
:101180001F9018951F920F920FB60F920BB60F92E9
:1011900011242F933F934F935F936F937F938F937C
:1011A0009F93AF93BF93EF93FF93809140069091ED
:1011B0004106892B29F0E0914006F09141061995EE
:1011C000FF91EF91BF91AF919F918F917F916F911F
:1011D0005F914F913F912F910F900BBE0F900FBEDB
:1011E0000F901F9018951F920F920FB60F920BB68B
:1011F0000F9211242F933F934F935F936F937F939D
:101200008F939F93AF93BF93EF93FF938091360695
:1012100090913706892B29F0E0913606F091370638
:101220001995FF91EF91BF91AF919F918F917F9110
:101230006F915F914F913F912F910F900BBE0F9047
:101240000FBE0F901F9018951F920F920FB60F921E
:101250000BB60F9211242F933F934F935F936F938D
:101260007F938F939F93AF93BF93EF93FF9380915F
:10127000380690913906892B29F0E0913806F091D3
:1012800039061995FF91EF91BF91AF919F918F9181
:101290007F916F915F914F913F912F910F900BBE76
:1012A0000F900FBE0F901F9018951F920F920FB6C0
:1012B0000F920BB60F9211242F933F934F935F938E
:1012C0006F937F938F939F93AF93BF93EF93FF930E
:1012D0008091420690914306892B29F0E0914206C5
:1012E000F09143061995FF91EF91BF91AF919F91B6
:1012F0008F917F916F915F914F913F912F910F90BF
:101300000BBE0F900FBE0F901F9018951F920F925B
:101310000FB60F920BB60F9211242F933F934F935A
:101320005F936F937F938F939F93AF93BF93EF934D
:10133000FF938091440690914506892B29F0E09116
:101340004406F09145061995FF91EF91BF91AF9139
:101350009F918F917F916F915F914F913F912F91CD
:101360000F900BBE0F900FBE0F901F9018951F92FD
:101370000F920FB60F9211242F933F938F939F9349
:10138000AF93BF9380914A0690914B06A0914C0673
:10139000B0914D0630914E060196A11DB11D232F2F
:1013A0002D5F2D3720F02D570196A11DB11D2093E3
:1013B0004E0680934A0690934B06A0934C06B0933A
:1013C0004D068091460690914706A0914806B0913F
:1013D00049060196A11DB11D8093460690934706CC
:1013E000A0934806B0934906BF91AF919F918F910A
:1013F0003F912F910F900FBE0F901F9018959B015A
:10140000AC017FB7F8948091460690914706A09171
:101410004806B091490666B5A89B05C06F3F19F014
:101420000196A11DB11D7FBFBA2FA92F982F882724
:10143000860F911DA11DB11D62E0880F991FAA1F83
:10144000BB1F6A95D1F7BC012DC0FFB7F8948091FE
:10145000460690914706A0914806B0914906E6B528
:10146000A89B05C0EF3F19F00196A11DB11DFFBF5C
:10147000BA2FA92F982F88278E0F911DA11DB11D5E
:10148000E2E0880F991FAA1FBB1FEA95D1F7861BC0
:10149000970B885E9340C8F2215030404040504046
:1014A00068517C4F211531054105510571F60895AC
:1014B000789484B5826084BD84B5816084BD85B52F
:1014C000826085BD85B5816085BDEEE6F0E08081F6
:1014D00081608083E1E8F0E0108280818260808317
:1014E000808181608083E0E8F0E08081816080839A
:1014F000E1EBF0E0808184608083E0EBF0E08081CC
:1015000081608083E1E9F0E0808182608083808176
:1015100081608083E0E9F0E0808181608083E1EA9E
:10152000F0E0808182608083808181608083E0EA56
:10153000F0E0808181608083E1E2F1E0808182607F
:101540008083808181608083E0E2F1E0808181603E
:101550008083EAE7F0E0808184608083808182601C
:101560008083808181608083808180688083109205
:10157000C1000895893009F449C08A30A0F484304C
:1015800051F1853040F4823079F1833000F58130BB
:1015900009F063C026C0873079F1883098F586302D
:1015A00009F05BC025C08D3009F442C08E3028F4AC
:1015B0008B30B1F18C30C0F52DC0803109F442C0C0
:1015C000813109F445C08F3009F047C037C08091A0
:1015D00080008F7703C0809180008F7D8093800092
:1015E000089584B58F7702C084B58F7D84BD08953A
:1015F0008091B0008F7703C08091B0008F7D809381
:10160000B0000895809190008F7707C0809190007E
:101610008F7D03C080919000877F80939000089514
:101620008091A0008F7707C08091A0008F7D03C0BC
:101630008091A000877F8093A00008958091200171
:101640008F7703C0809120018F7D809320010895C2
:1016500080912001877F809320010895FF920F934E
:101660001F93F62E482F50E0CA01805C9D4FFC016D
:101670002491CA0186509E4FFC0114914C545E4F38
:10168000FA0104910023C9F0222319F0822F0E944D
:10169000BA0AE02FF0E0EE0FFF1FE058FE4FA591D1
:1016A000B4919FB7F894FF2021F48C911095812379
:1016B00002C08C91812B8C939FBF1F910F91FF9043
:1016C000089580E090E00895EF92FF920F931F93AA
:1016D000CF93DF93162F072F7A01E9011982188221
:1016E00088EA95E00E942B05892BD1F0812F902F5D
:1016F0009C01890110C088EA95E00E945C052FEFEB
:101700008F3F920741F0F80181938F018881998181
:10171000019699838883888199818E159F0558F356
:1017200080E090E0DF91CF911F910F91FF90EF90BB
:101730000895EF92FF920F931F938A01790188EA2F
:1017400095E00E945C07F7011183008380E090E040
:101750001F910F91FF90EF9008950E94580A88EA18
:1017600095E040E052EC61E070E00E94A40404C007
:1017700088EA95E00E945C0588EA95E00E942B05C6
:10178000892BB1F780E090E00895AF92BF92CF929D
:10179000DF92EF92FF920F931F935C016A017B012E
:1017A00000E010E020E030E00E941F15C501B70105
:1017B000A60101E010E020E030E00E941F151F911B
:1017C0000F91FF90EF90DF90CF90BF90AF90089572
:1017D00060E070E080E090E00E94F71461E070E06B
:1017E00080E090E00E94F71408950F931F938C01FE
:1017F00060E070E080E090E0A8010E948E1461E05B
:1018000070E080E090E0A8010E948E141F910F917B
:101810000895CF92DF92EF92FF920F931F93DF9381
:10182000CF9300D00F92CDB7DEB77C0180915606E2
:10183000909157068E159F050CF580915406909156
:101840005506009731F00E943B0210925706109205
:101850005606C7010E949101909355068093540645
:10186000009741F400E010E083E0C82ED12CCC0EAC
:10187000DD1E1CC0F0925706E092560600E010E014
:101880006E010894C11CD11C27C080915206909112
:10189000530661E070E0A60128E536E00E94BF250E
:1018A000882311F58B819C81080F191F0E151F05C8
:1018B00064F31AC0B701601B710B200F311F8091B8
:1018C000520690915306A6010E94BF25882361F419
:1018D00089819A81080F191F20915406309155066D
:1018E0000E151F053CF302C020E030E0C9010F9047
:1018F0000F900F900F90CF91DF911F910F91FF905C
:10190000EF90DF90CF900895AF92BF92CF92DF9289
:10191000FF920F931F93DF93CF93CDB7DEB72A9734
:101920000FB6F894DEBF0FBECDBF8B016A01A0E0F9
:10193000B0E08B839C83AD83BE83CB01AA2797FD48
:10194000A095BA2F8F839887A987BA87809152066E
:101950009091530668E070E0AE014D5F5F4F5E010D
:101960000894A11CB11C95010E94BA24F82E88236A
:10197000B9F489819A81089799F4C114D10491F03E
:101980008091520690915306B801A60195010E94DC
:10199000BA24882329F489819A818017910711F04C
:1019A000FF24F3948F2D2A960FB6F894DEBF0FBE56
:1019B000CDBFCF91DF911F910F91FF90DF90CF901E
:1019C000BF90AF900895AF92BF92CF92DF92EF9207
:1019D000FF920F931F93DF93CF93CDB7DEB72C9772
:1019E0000FB6F894DEBF0FBECDBF7C016B01CA01FC
:1019F00059010E94090CFC010097D1F481E090E0AC
:101A0000A0E0B0E08D839E83AF83B8878FEF9FEF18
:101A1000AFEFBFEF89879A87AB87BC87C70168E0C4
:101A200070E0AE014B5F5F4F0E94840C11E04FC02D
:101A3000008111812281338109831A832B833C83A6
:101A40008BE1E816F10461F08CE1E816F10451F540
:101A50003496C601BF01A90198010E94001A06C070
:101A60003496C601B501AF010E94F41D182F8823DA
:101A7000C9F029813A814B815C8181E090E0A0E04E
:101A8000B0E08D839E83AF83B88729873A874B87E1
:101A90005C87C70168E070E0AE014B5F5F4F0E945A
:101AA000840C15C089819A81AB81BC811D821E8204
:101AB0001F82188689879A87AB87BC87C70168E031
:101AC00070E0AE014B5F5F4F0E94840C182F812F96
:101AD0002C960FB6F894DEBF0FBECDBFCF91DF912D
:101AE0001F910F91FF90EF90DF90CF90BF90AF903C
:101AF0000895EF92FF920F931F93DF93CF93CDB78B
:101B0000DEB72C970FB6F894DEBF0FBECDBF8C01A9
:101B1000CB017A010E94090CFC010097D1F481E00D
:101B200090E0A0E0B0E08D839E83AF83B8878FEF15
:101B30009FEFAFEFBFEF89879A87AB87BC87C8015C
:101B400068E070E0AE014B5F5F4F0E94840C81E063
:101B500028C0608171818281938169837A838B83BC
:101B60009C830D31110531F00E31110531F40E94C5
:101B7000B51303C0A7010E94681389819A81AB81C4
:101B8000BC811D821E821F82188689879A87AB8737
:101B9000BC87C80168E070E0AE014B5F5F4F0E94F8
:101BA000840C2C960FB6F894DEBF0FBECDBFCF913C
:101BB000DF911F910F91FF90EF9008950F931F9366
:101BC0008C01109251061092500660E070E080E0A7
:101BD00090E0A8010E94E71C61E070E080E090E0E6
:101BE000A8010E94E71C80915206909153060E9422
:101BF000D9231F910F910895CF92DF92EF92FF9218
:101C00000F931F936B017C0189019A018091520609
:101C100090915306B701A6010E94D8231F910F91FE
:101C2000FF90EF90DF90CF9008951F938091520620
:101C3000909153060E94BF23182F882361F460E01F
:101C400070E080E090E00E94EB1B61E070E080E0DB
:101C500090E00E94EB1B812F1F9108952F923F92DD
:101C60004F925F926F927F928F929F92AF92BF92AC
:101C7000CF92DF92EF92FF920F931F93DF93CF9358
:101C8000CDB7DEB72A970FB6F894DEBF0FBECDBF33
:101C90005B016C012A0180915106882309F46FC011
:101CA0008E010D5F1F4FC801B601A50192010E9470
:101CB000F71C1E010894211C311C09871A8752C089
:101CC0000D811E81060D171DF801E080F180428113
:101CD00053818091520690915306B70191010E9461
:101CE000BA24882309F048C089819A818E159F05FE
:101CF00009F042C0F801E480F5801E141F048CF442
:101D0000468157818091520690915306B701910107
:101D10000E94BA24882381F589819A818E159F05B6
:101D200059F5C401880F991FEF81F885E80FF91F55
:101D300080819181B601A5010E94E1130894811C64
:101D4000911C88E090E0680E791E8B819C8188163A
:101D500099060CF4B5CF89859A85B601A501920143
:101D60000E94F71C8B819C811816190644F4882464
:101D7000992466247724E9CFC2010E94DE0D2A96B9
:101D80000FB6F894DEBF0FBECDBFCF91DF911F918C
:101D90000F91FF90EF90DF90CF90BF90AF909F900A
:101DA0008F907F906F905F904F903F902F9008950D
:101DB0001F93CF93DF93EC0160E070E080E090E050
:101DC0000E944B1360E070E080E090E0AE010E9462
:101DD0002E0E60E070E080E090E0AE010E94191CE1
:101DE0008091540690915506009731F00E943B0275
:101DF000109255061092540661E070E080E090E089
:101E00000E944B1361E070E080E090E0AE010E9420
:101E10002E0E61E070E080E090E0AE010E94191C9F
:101E20008091540690915506009731F00E943B0234
:101E3000109255061092540680915006882311F492
:101E400010E00BC084E190E060E070E040E050E022
:101E50000E94840C182F10925006809151068823FE
:101E600041F01092510681E090E090930603809338
:101E7000050380915206909153060E94DE278091BF
:101E80005206909153060E94D723812FDF91CF9164
:101E90001F9108952F923F924F925F926F927F927F
:101EA0008F929F92AF92BF92CF92DF92EF92FF926A
:101EB0000F931F93DF93CF93CDB7DEB7A0970FB6E5
:101EC000F894DEBF0FBECDBF6C017B012A0180916B
:101ED0005106882359F4809152069091530661E58A
:101EE00076E00E94C123882309F012C38091510635
:101EF000882309F40DC31A82198200E010E058E02B
:101F0000652E712C4BE0842E912C8C0E9D1E5E0153
:101F10000894A11CB11CB301601B710B9401200F2C
:101F2000311F8091520690915306A5010E94BF2552
:101F3000282F882351F489819A81080F191F0115D0
:101F4000110519F00830110534F389819A81222393
:101F500009F0DBC2181619060CF0DAC2809150069F
:101F6000882321F41B861C861D861E868B859C85F6
:101F7000AD85BE8586309105A105B10509F468C01F
:101F800087309105A105B10510F582309105A105B5
:101F9000B10509F4BAC283309105A105B10558F421
:101FA0000097A105B10509F468C00197A105B10525
:101FB00009F0AEC24BC284309105A105B10509F408
:101FC00058C10597A105B10509F0A2C281C18930A8
:101FD0009105A105B10509F490C28A309105A105CA
:101FE000B10558F487309105A105B105D1F10897E5
:101FF000A105B10509F08CC226C08B309105A10561
:10200000B10509F476C28B309105A105B10508F43C
:1020100063C20F97A105B10509F07AC2D6011696E1
:10202000ED91FC91179780819181A281B3818B837F
:102030009C83AD83BE8385E190E064E070E0AE01F7
:102040004D5F5F4F2DC16F8578898DE190E059C25A
:102050004F8558898BE190E0B601970103E013E0CA
:1020600009C04F8558898CE190E0B6012FEF3FEF12
:1020700004E013E00E94E30C4BC2D6011496ED91EC
:10208000FC91159700811181F801F281FD8FD80133
:102090001396BC91BE8FF801F081FB8FD801119689
:1020A000BC91BC8F30E1832E912CA12CB12C8B8A5A
:1020B0009C8AAD8ABE8A88E090E0A0E0B0E08F8B79
:1020C000988FA98FBA8F23E1422E512C4C0E5D1EA2
:1020D000809152069091530668E070E0A2013E01A3
:1020E0000894611C711C93010E94BA24882309F092
:1020F000BAC089819A81089709F0B5C0F801E080DB
:10210000F18088E090E0E80EF91EEE0CFF1CEE0C6A
:10211000FF1CC7010E9491018F8F98A38C011C01A5
:10212000009709F4A2C08B8A9C8AAD8ABE8AC70137
:10213000AA2797FDA095BA2F8F8B988FA98FBA8F5A
:10214000809152069091530668E070E0A2019301DD
:102150000E94BA24882309F088C089819A8108974F
:1021600009F083C04B8D5C8DD6011296ED91FC91E8
:102170001397A080B180C280D380D801AD92BD9268
:10218000CD92DC921397A480B580C680D780149638
:10219000AD92BD92CD92DC921797A084B184C28497
:1021A000D3841896AD92BD92CD92DC921B97848514
:1021B0009585A685B785F80184879587A687B78713
:1021C000D80150961D921D921D921C92539784E047
:1021D00090E0A0E0B0E0848B958BA68BB78B8091CC
:1021E000050390910603A0E0B0E0808F918FA28F4D
:1021F000B38FCA01AA2797FDA095BA2F848F958F18
:10220000A68FB78F2D8D3E8DC901BC012F8D38A1B2
:10221000C901FC0120E030E00CC0DB018D919D91F3
:10222000BD01A0E0B0E0848F958FA68FB78F2F5FA0
:102230003F4F34962417350784F3809152069091CE
:102240005306B701A8019E012F5F3F4F0E94BA2499
:10225000882359F489819A818E159F0531F481E094
:102260008093500602C022243324C1010E943B0205
:102270004FC18F8598890E94090CBC018E01095FAE
:102280001F4F009781F481E090E0A0E0B0E08F83E1
:102290009887A987BA8782E190E064E070E0A8019E
:1022A0000E94840C35C1C6010E94E6181F82188660
:1022B00019861A8682E190E064E070E0A8010E942D
:1022C000840C882309F024C181E080934F0620C14B
:1022D000D6011496ED91FC9115970190F081E02DB7
:1022E000A084B184A114B10409F495C0D5016D9006
:1022F0007C908280938000E010E060E070E040E03D
:1023000050E021C0F501A281B381A40FB51F129640
:10231000ED91FC911397EE0FFF1FE80DF91D208141
:10232000318116968D919C911797DC012A9FC001EF
:102330002B9F900D3A9F900D1124080F191F6F5F6E
:102340007F4F485F5F4F66157705E4F283E190E0C9
:10235000A0E0B0E08B8B9C8BAD8BBE8BC801AA2715
:1023600097FDA095BA2F8F8B988FA98FBA8F8091E8
:1023700052069091530668E070E0AE014D5E5F4FEB
:102380006E010894C11CD11C96010E94BA248823B6
:1023900009F0BEC089819A81089709F0B9C0EE247E
:1023A000FF2400E010E0260132C0F501A281B381D4
:1023B000A00FB11F1296ED91FC911397EE0FFF1F26
:1023C000E80DF91D2081318116968D919C9117970A
:1023D000289F6001299FD00C389FD00C11244D916B
:1023E0005C918091520690915306B60192010E9431
:1023F000BA24882309F08CC0085F1F4F89819A8115
:102400008C159D0509F084C00894E11CF11CE614AC
:10241000F7045CF27DC083E190E0A0E0B0E08B8B3C
:102420009C8BAD8BBE8B1F8A188E198E1A8E809155
:1024300052069091530668E070E0AE014D5E5F4F2A
:102440009E012F5F3F4F0E94BA2462C081E190E05D
:1024500060E070E040E050E00E94840C882309F0C6
:1024600057C060E070E080E090E00E944B138091E4
:102470005B06882339F060E070E080E090E0A7011F
:102480000E942E0E60E070E080E090E0A7010E94C4
:10249000191C61E070E080E090E00E944B13809195
:1024A0005B06882339F061E070E080E090E0A701EE
:1024B0000E942E0E61E070E080E090E0A7010E9493
:1024C000191C10925106109250068091520690915C
:1024D00053060E94CE231CC081E090E090935A06E0
:1024E0008093590686E190E060E070E040E050E0C3
:1024F000D7CE81E0D2018C930BC06F8578898EE1B5
:1025000090E0A7010E94790D03C0C7010E94DE0D73
:10251000A0960FB6F894DEBF0FBECDBFCF91DF916E
:102520001F910F91FF90EF90DF90CF90BF90AF90F1
:102530009F908F907F906F905F904F903F902F90E3
:1025400008950F931F938C0160E070E080E090E0AD
:10255000A8010E942E0E61E070E080E090E0A801EA
:102560000E942E0E1F910F91089580915206909116
:1025700053060E94D12308950F931F93CF93DF93A7
:10258000EC018B010E94D423909353068093520652
:10259000009719F4C0E0D2E007C0BE01A8010E9474
:1025A0005C27EC01009751F0809152069091530600
:1025B0000E94D7231092530610925206CE01DF914B
:1025C000CF911F910F9108950895089580E090E0B4
:1025D00060E070E00E94BC1208950E94D80E089539
:1025E0000E94150E08950E94F50B08950E94E80BB5
:1025F00008950E94C50B0895CF93DF939C01EB01D2
:102600008091050390910603049731F0C9010E945F
:102610004A0FCE010E94A112DF91CF910895EF924F
:10262000FF920F931F93CF93DF937C018B01EA01FD
:102630000E94B512882399F41BC060E070E080E02E
:1026400090E028ED38EB45E050E00E94FC0DC7011A
:10265000B801AE010E944A0FC8010E94A1128091E8
:10266000590690915A06892B19F48881882329F3F9
:102670008091050390910603049731F083E090E088
:102680009093060380930503DF91CF911F910F91E3
:10269000FF90EF90089524E430E0629FF001639F83
:1026A000F00D729FF00D1124E45AF94F828993893D
:1026B0000497029760F485E090E0938B828B8FEF14
:1026C0009FEFAFEFBFEF828F938FA48FB58F0895E9
:1026D000CF93DF9324E430E0629FD001639FB00D7D
:1026E000729FB00D1124A45AB94F10925B069D96AB
:1026F0001C921E929C9760E070E020E030E0C1E008
:10270000D0E019C01A96ED91FC911B97E20FF31FD0
:10271000828193811816190654F4848195819783D8
:1027200086839187808713861286D183C0836F5FEB
:102730007F4F225F3F4F6417750724F39B961C92CF
:102740001E929A97D9961C921E92D897FD01FE96DA
:10275000108211821282138282E090E053969C9341
:102760008E935297DF91CF91089524E430E0629FD9
:10277000F001639FF00D729FF00D1124E45AF94FA0
:102780008289938981309105D8F08530910518F0C0
:102790000597B1F40DC08FEF9FEFAFEFBFEF828FC2
:1027A000938FA48FB58F85E090E0938B828B0895F3
:1027B0008FEF9FEFAFEFBFEF828F938FA48FB58F17
:1027C000089524E430E0429FF001439FF00D529FB2
:1027D000F00D1124E45AF94F9C01220F331FC90157
:1027E00043E0880F991F4A95E1F7821B930B0284FF
:1027F000F385E02DE80FF91F81E080935B06828569
:10280000938591878087208531858681978140E0F7
:1028100050E02817390711F441E050E0518340831C
:102820000895EF92FF920F931F93CF93DF93DC01F4
:10283000EA01F9011496ED90FC90159712964D91CE
:102840005C9113972881398118968D919C911997E5
:102850008217930730F08D919C911197892B09F481
:102860003FC08701040F151FA801421B530B189688
:102870008D919C9119978E199F09840F951F86172A
:1028800097070CF443C0260F371F888199812017C2
:10289000310728F471836083938382832EC0518330
:1028A000408393838283CB01841B950B9583848320
:1028B000181619061CF080E090E004C014968D9163
:1028C0009C9115979783868314968D919C9115976B
:1028D00024813581820F931F9983888380E017C0FC
:1028E00018968D919C911997821B930B86179707C9
:1028F0006CF0718360833383228315821482178284
:10290000168288819981860F971FE6CF81E0DF913B
:10291000CF911F910F91FF90EF900895EF92FF924A
:102920000F931F93CF93DF937B018C01FA0184E413
:1029300090E0E89EE001E99ED00DF89ED00D1124B4
:10294000C45AD94F8A899B89009709F449C00197D5
:10295000C1F48AA59BA52A8D3B8D4C8D5D8D01967A
:102960009BA78AA70197AA2797FDA095BA2F821740
:102970009307A407B507A1F5C801B701AF010E94ED
:1029800068138A899B89039759F58AA59BA52E8D83
:102990003F8D48A159A101969BA78AA70197AA2715
:1029A00097FDA095BA2F82179307A407B507C4F027
:1029B0008EAD9FAD9BA78AA784E090E09B8B8A8B0E
:1029C0008AAD9BADACADBDAD181619061A061B0637
:1029D0003CF4FE01EE5BFF4F81E090E09183808349
:1029E000DF91CF911F910F91FF90EF90089524E414
:1029F00030E0629FF001639FF00D729FF00D112493
:102A0000E45AF94F828993890097C1F00497B1F491
:102A100082A593A5019693A782A7AA2797FDA095C3
:102A2000BA2F26893789408D518D82179307A407C5
:102A3000B50721F485E090E0938B828B08952F9267
:102A40003F924F925F926F927F928F929F92AF923E
:102A5000BF92CF92DF92EF92FF920F931F93DF937B
:102A6000CF93CDB7DEB7CC54D0400FB6F894DEBFCD
:102A70000FBECDBF27969FAF8EAF27974DA75EA7FE
:102A80006FA778AB2B960CAF1DAF2EAF3FAF2B9738
:102A900084E490E029962EAD3FAD2997289F400110
:102AA000299F900C389F900C11244CE556E0840E21
:102AB000951ED4011A960D90BC91A02D2596BFAFFE
:102AC000AEAF2597F40182899389029709F025C159
:102AD00086A597A5A0A9B1A90097A105B10529F4DC
:102AE00084E090E0938B828B18C1D40154968D9131
:102AF0009C9155972796EEADFFAD2797E817F907FC
:102B000009F00BC1D6962D913C91D7973EAF2DAFD2
:102B10001DAA1EAA1FAA18AE1CAA1BAACBC0D401AC
:102B2000D2964D905C90D397EBA9FCA94E0E5F1EF8
:102B3000D20112960D90BC91A02DBCAFABAFB69553
:102B4000A795B695A795BAAFA9AFF40180AD91ADA1
:102B5000892B09F489C0E6A0F7A000A511A56DACEA
:102B60007EACD2012D903C9021961FAE1EAE2197D7
:102B700071C0F40182A193A1892B61F1D101AD90C3
:102B8000BD90CD90DC90C601B501A80197010E94CF
:102B9000F83988235CF0F30160817181828193812F
:102BA000A80197010E94DA3887FD98C0C601B501D7
:102BB000A80197010E94F839181664F4D3016D91A9
:102BC0007D918D919C91A80197010E94DA3888230C
:102BD00009F484C0F40184A195A1892B61F1D1018C
:102BE000AD90BD90CD90DC90C601B501A8019701D4
:102BF0000E94DA3888235CF4F3016081718182815C
:102C00009381A80197010E94F83987FF67C0C60128
:102C1000B501A80197010E94DA38882361F4D30135
:102C20006D917D918D919C91A80197010E94F83939
:102C300018160CF453C02196EEADFFAD21973196D6
:102C40002196FFAFEEAF219724E030E0620E731EB5
:102C5000220E331E21964EAD5FAD219789AD9AAD00
:102C6000481759070CF485CFD2016C9111967C91CD
:102C70008DAD9EAD4BAD5CAD0E949302E9ADFAAD5A
:102C8000EE0FFF1FEE0FFF1F2DAD3EAD2E0F3F1FAE
:102C90003EAF2DAF8DA99EA9AFA9B8AD0196A11DDC
:102CA000B11D8DAB9EABAFABB8AFABA9BCA91496B1
:102CB000BCABABABF40186A597A5A0A9B1A92DA982
:102CC0003EA94FA958AD281739074A075B070CF4EE
:102CD00026CF81E090E091AF80AF1FC0F401868DD8
:102CE000978DA0A1B1A10097A105B10549F484E099
:102CF00090E0938B828B86AD97AD93A782A70DC092
:102D000083E090E0D40153969C938E93529781E098
:102D100090E09B969C938E939A97F4018289938975
:102D20008230910571F482AD93ADA4ADB5AD1816A6
:102D300019061A061B060CF02FC2A1E02A2E312C10
:102D400005C0049709F028C22224332427968EADAB
:102D50009FAD2797880F991F7C01E3E0EE0CFF1CC5
:102D6000EA95E1F7E81AF90A25962EAD3FAD2597C9
:102D7000E20EF31ED70112966D917C9113976115A7
:102D8000710519F480E090E0FAC1F701868197811E
:102D90009A838983FE01799684E1DF011D928A95E9
:102DA000E9F72B962CAD3DAD4EAD5FAD2B9729A726
:102DB0003AA74BA75CA72114310409F446C0F401DB
:102DC000FE962081318142815381F40182AD93AD21
:102DD000A4ADB5AD281739074A075B07B1F5D70190
:102DE00014964D915C911597640F751F1896ED918F
:102DF000FC91199784819581A681B7819C018B8371
:102E00009C83AD83BE83285F3F4FF701808591850A
:102E1000820F931F9187808780859185861B970BF2
:102E200097FD04C0480F591F518740873C832B836F
:102E3000F401FE9680819181A281B3810197A1095D
:102E4000B10980839183A283B383C70164E170E0F9
:102E50008E010F5F1F4FA8019E012F5E3F4F0E9402
:102E6000111490E0009709F08AC18D8D9E8DAF8D71
:102E7000B8A10C96A11DB11D8D8F9E8FAF8FB8A3E9
:102E8000C70164E070E0A8019E01275F3F4F0E94E8
:102E90001114282F30E03AAB29AB232B09F06DC178
:102EA0008D8D9E8DAF8DB8A10496A11DB11D8D8F06
:102EB0009E8FAF8FB8A38E01035D1F4F49855A8542
:102EC0008B859C85B8010E9493026F857889611576
:102ED000710551F029853A85200F311F4D855E859A
:102EE000CB01B9010E9493021D821E821F821886A7
:102EF00027964EAD5FAD2797440F551F23965FAFC2
:102F00004EAF2397CE0105962D969FAF8EAF2D978E
:102F1000D4C0C901880F991F880F991FF401A0859B
:102F2000B185A80FB91FED91FC911197E081EE23B7
:102F300009F4B8C0E33009F4B5C01296ED91FC91E4
:102F4000139723962EAD3FAD2397E20FF31F4080DA
:102F500051804114510409F4A5C089A19AA1ABA1E3
:102F6000BCA10196A11DB11D89A39AA3ABA3BCA3CB
:102F7000C70164E070E0AE014F5F5F4F9E01275FC5
:102F80003F4F0E94111490E0009709F0F8C08D8D1A
:102F90009E8DAF8DB8A10496A11DB11D8D8F9E8F02
:102FA000AF8FB8A349855A858B859C852C966FADCC
:102FB0002C972D967FAD2D970E9493026F8578896F
:102FC0006115710571F029853A8545E050E04C0F97
:102FD0005D1F240F351F4D855E85CB01B9010E9411
:102FE0009302AA24BB2465016624772450C0D20131
:102FF00014960D911C911597060D171DF80162810D
:103000007381C701AE014F5F5F4F9E01275F3F4F46
:103010000E94111490E0009709F0B1C0D8011296F7
:103020002D913C911397442737FD4095542F8D8D5A
:103030009E8DAF8DB8A1820F931FA41FB51F8D8FDA
:103040009E8FAF8FB8A3F8016081718149855A8541
:103050008B859C850E9493026F8578896115710527
:1030600069F0D8012D913C9189859A85280F391FE7
:103070004D855E85CB01B9010E9493020894A11C85
:10308000B11CC11CD11CE4E0F0E06E0E7F1EF20109
:1030900080819181A281B381A816B906CA06DB0698
:1030A0000CF4A5CF8D819E81AF81B8850196A11DBD
:1030B000B11D8D839E83AF83B8872D813E814F8163
:1030C0005885F40184819581A681B7812817390735
:1030D0004A075B070CF41DCF89A19AA1ABA1BCA143
:1030E0000097A105B10509F448C08AE190E0A0E08D
:1030F000B0E0898F9A8FAB8FBC8F27962EAD3FADF6
:103100002797C901AA2797FDA095BA2F8DA39EA343
:10311000AFA3B8A78E01075E1F4F49895A898B89D3
:103120009C89B8010E9493026F89788D61157105A1
:1031300051F029893A89200F311F4D895E89CB01D1
:10314000B9010E94930289819A81D70117969C93B5
:103150008E93169711961C921E922328E9F0F40183
:10316000FE9680819181A281B3810196A11DB11D3E
:1031700080839183A283B3830FC089A99AA923284E
:1031800059F4892B49F081E090E0F40195A784A7D8
:1031900085E090E0938B828BC45BDF4F0FB6F89491
:1031A000DEBF0FBECDBFCF91DF911F910F91FF907A
:1031B000EF90DF90CF90BF90AF909F908F907F90D7
:1031C0006F905F904F903F902F9008952F923F9275
:1031D0004F925F926F927F928F929F92AF92BF9227
:1031E000CF92DF92EF92FF920F931F93DF93CF93D3
:1031F000CDB7DEB768970FB6F894DEBF0FBECDBF70
:10320000DC011496ED91FC9115970190F081E02D71
:1032100080859185988F8F8BA281B381BE8BAD8B7A
:10322000FB0181919191A191B19189839A83AB83A3
:10323000BC8366247724430165C09E012B5F3F4F0A
:10324000AF0180E1DA010D90AD01D9010D929D0130
:103250008150C1F730E1432E512C4E0E5F1E8D81FF
:103260009E8123E0880F991F2A95E1F7EF89F88D59
:10327000A281B381A80FB91F2D903C901197E989C5
:10328000FA89EE0FFF1F8D899E89E80FF91F0190C3
:10329000F081E02D14968D919C911597892B19F44E
:1032A00081E090E002C082E090E08E9F70018F9FED
:1032B000F00C9E9FF00C11240027F7FC0095102FB6
:1032C0002D853E854F855889C801B7010E94C63BB0
:1032D0005B016C0129853A854B855C85C801B70186
:1032E0000E94C63B9101260F371FC901B201A501FB
:1032F0000E949302F201EA0DFB1D0894611C711CEF
:10330000811C911C89819A81AB81BC8168167906E8
:103310008A069B060CF491CF68960FB6F894DEBF30
:103320000FBECDBFCF91DF911F910F91FF90EF9016
:10333000DF90CF90BF90AF909F908F907F906F90D5
:103340005F904F903F902F900895CF93DF9324E4A8
:1033500030E0629FE001639FD00D729FD00D112479
:10336000C45AD94F8AA99BA9009721F00E943B0219
:103370001BAA1AAA8EA99FA9009721F00E943B02BE
:103380001FAA1EAA1B8A1A8A1E8A1F8A188E198EC5
:103390001A8E1B8E1C8E1D8E1E8E1F8E18A219A2B9
:1033A00081E090E09BA38AA31DA21CA280E090E094
:1033B000A0E0B0E08EA39FA3A8A7B9A71BA61AA65A
:1033C0001DA61CA61EA61FA618AA19AA1BAA1AAAE1
:1033D0001DAA1CAA1FAA1EAA19AE18AE1AAE1BAEB1
:1033E0001CAE1DAEFE01FE96108211821282138267
:1033F000FE01EE5BFF4F11821082DF91CF910895A5
:103400002F923F924F925F926F927F928F929F92F4
:10341000AF92BF92CF92DF92EF92FF920F931F93E2
:10342000DF93CF93CDB7DEB7AC970FB6F894DEBF7E
:103430000FBECDBF98A38F8F8B0129A33AA34BA3B7
:103440005CA3FB0181919191A191B191AF01BC016C
:1034500089839A83AB83BC8329A13AA184E490E059
:10346000289FF001299FF00D389FF00D11249F0136
:10347000245A394F3EA32DA3D90155967C936E93C0
:1034800054979F012E58394FD80114964D905D9056
:103490006D907C901797D9014D925D926D927C92C0
:1034A0001397BA016C5F7F4F9F012A58394FDA0199
:1034B00014964D905D906D907C901797D9014D9228
:1034C0005D926D927C921397AB014C5F5F4F9F01B1
:1034D0002658394FDB0114964D905D906D907C908D
:1034E0001797D9014D925D926D927C921397E65792
:1034F000F94FDA0114964D905D906D907C9017977E
:103500004082518262827382FA013896FE8FED8F7B
:103510000DA11EA1025D1F4FC201141415040CF071
:10352000C3C0880F991F880F991F0E9491019C01A9
:103530008DA19EA1C296ADA1BEA1D3963C932E9320
:10354000D297232B09F427C12224332421011A8E78
:10355000198E18A70FA39AA789A7D496BCA7ABA7C3
:1035600088C0E9A5FAA50190F081E02D298D3A8D5A
:10357000E20FF31FFC8FEB8FDE011996ED8DFE8DB0
:1035800080E101900D928150E1F7AF8DB8A11496C2
:10359000ED91FC91159720813181D9011696ED911D
:1035A000FC91179789859A8553E0880F991F5A9542
:1035B000E1F7A281B381A80FB91F6D907C9011979C
:1035C0008D899E89880F991FF90122813381280FE7
:1035D000391FF9014081518114968D919C91159765
:1035E000892B19F481E090E002C082E090E02D8DFB
:1035F0003E8D205F3F4F3E8F2D8F849F7001859FB2
:10360000F00C949FF00C11240027F7FC0095102F6C
:1036100029893A894B895C89C801B7010E94C63B58
:103620004B015C016B012D853E854F855889C80192
:10363000B7010E94C63B660E771EAB8DBC8D1196FE
:103640007C926E9213969C928E921297EBA5FCA59B
:1036500080819181C80ED91ED182C0820894211C1C
:10366000311C411C511C298D3A8D2C5F3F4F3A8FE4
:10367000298FEFA1F8A580819181A281B3812816BD
:1036800039064A065B060CF46CCFADA1BEA1D496F8
:103690008D919C91D5970E949101EDA1FEA197ABD0
:1036A00086AB009709F477C0AD8DBE8D2C91119635
:1036B0003C91119712964C91129713965C912D8321
:1036C0003E834F835887C901DA01AC01BD01411522
:1036D00051056105710539F0A0E0B0E042305105B7
:1036E0006105710511F4A1E0B0E029A13AA184E4DB
:1036F00090E0289FF001299FF00D389FF00D1124D4
:10370000E45AF94FB3A3A2A315A214A2415050400A
:1037100060407040423051056105710520F481E040
:1037200090E095A384A384E490E0E9A1FAA1E89F46
:103730009001E99F300DF89F300D1124A9014E57DB
:10374000594FED8DFE8D84819581A681B781FA0157
:1037500080839183A283B383F901E45AF94F268DC4
:10376000378D40A151A157FF10C088279927DC0150
:10377000821B930BA40BB50B82AF93AFA4AFB5AF75
:10378000168E178E10A211A204C012AE13AE14AE84
:1037900015AE80E007C069A17AA18BA19CA10E940F
:1037A000A51981E0AC960FB6F894DEBF0FBECDBF71
:1037B000CF91DF911F910F91FF90EF90DF90CF900D
:1037C000BF90AF909F908F907F906F905F904F9041
:1037D0003F902F900895CF93DF939B01AC0184E439
:1037E00090E0289FF001299FF00D389FF00D1124E3
:1037F000E45AF94FD901A95FBC4F8C91882331F06D
:1038000084E4EF0119928A95E9F71C9214821582DB
:10381000168217821186108613861286118A108AE4
:1038200017861686CA01B9010E94A519DF91CF91AA
:1038300008952F923F924F925F926F927F928F9254
:103840009F92AF92BF92CF92DF92EF92FF920F932F
:103850001F93DF93CF9300D00F92CDB7DEB73B011C
:103860004C015A83498384E490E0689E7001699E0C
:10387000F00C789EF00C11248CE596E0E80EF91E11
:10388000F70184819581A681B7810097A105B105D3
:1038900009F486C0AA24BB2465014424552435C0FC
:1038A000E40DF51D32802380232D322DC9019C8328
:1038B0008B8300E010E017C0AB81BC81ED91FC91DF
:1038C000309751F0848195810E943B02EB81FC810D
:1038D000808191810E943B020F5F1F4F8B819C81F1
:1038E00002969C838B83A981BA810A171B0724F354
:1038F000832D922D0E943B020894A11CB11CC11C77
:10390000D11CE4E0F0E04E0E5F1ED70114962D911D
:103910003D914D915C9117971896ED91FC911997F7
:10392000A216B306C406D5060CF4BACFCF010E9486
:103930003B02F70182859385892BF1F000E010E0CE
:10394000CC24DD240CC0EC0DFD1D848195810E94EA
:103950003B020F5F1F4F8EE090E0C80ED91ED701CB
:103960001A96ED91FC911B9789819A810817190786
:1039700054F3CF010E943B02D70150968D919C9148
:1039800051970E943B02F701868597850E943B0272
:10399000C401B3010E94A519C401B3010E94EB1B2D
:1039A0000F900F900F900F90CF91DF911F910F917B
:1039B000FF90EF90DF90CF90BF90AF909F908F904F
:1039C0007F906F905F904F903F902F90089524E4E8
:1039D00030E0629FF001639FF00D729FF00D1124A3
:1039E000E45AF94F138A128A0E94191C08954F92C3
:1039F0005F926F927F928F929F92AF92BF92CF927F
:103A0000DF92EF92FF920F931F93DF93CF9300D03B
:103A10000F92CDB7DEB75C0149835A836B837C83F9
:103A2000290184E490E0489F8001499F100D589F30
:103A3000100D1124045A194FF801828993890497B3
:103A4000029708F0B4C0F50111821082138212822D
:103A5000F80115861486882499246624772460C08A
:103A6000F80142855385460D571DFA0180819181E9
:103A7000892B09F04EC0C084D184E280F380668136
:103A80007781F801848595859C01A3E0220F331F7F
:103A9000AA95E1F7A089B189A20FB31F880F991FDA
:103AA00026853785280F391FF90191828082F80118
:103AB000848595850196958784871396DC92CE92AE
:103AC0001297FA0173876287C616D70670F46C19CD
:103AD0007D0911967C936E9315961C921E921497F5
:103AE00017961C921E92169714C0FA018481958134
:103AF000E80EF91EEC18FD081196FC92EE92681B78
:103B0000790B15967C936E93149717969C938E93CE
:103B100016970894811C911C8EE090E0680E791E27
:103B2000841495040CF49CCFF80184859585F501E7
:103B300091838083F80120893189F50133832283C1
:103B4000F80126853785F50135832483892BB9F55E
:103B5000F80182899389059791F510925B06828D11
:103B6000938DA48DB58DAE014F5F5F4F8F5F9F4FDB
:103B7000AF4FBF4F71F480E290E064E070E00E94CC
:103B8000840C69817A818B819C81A2010E94E71C4F
:103B900016C08FE190E064E070E00E94840CF801B0
:103BA00013A612A681E090E0938B828B08C0F801E7
:103BB00015861486F50111821082138212820F90ED
:103BC0000F900F900F90CF91DF911F910F91FF9069
:103BD000EF90DF90CF90BF90AF909F908F907F90AD
:103BE0006F905F904F9008952F923F924F925F9207
:103BF0006F927F928F929F92AF92BF92CF92DF92FD
:103C0000EF92FF920F931F93DF93CF93CDB7DEB761
:103C1000E6970FB6F894DEBF0FBECDBF98AB8FA767
:103C20007AAB69AB7A010BAB1CAB2DAB3EAB84E43A
:103C300090E04BA95CA9489F9001499F300D589F87
:103C4000300D1124245A394F3AA729A78BA99CA9D2
:103C5000ADA9BEA9F90180839183A283B383BC017E
:103C6000CD0149A95AA90E94191CD7012D913D9156
:103C70004D915C91C901E9A5FAA52483358346835A
:103C8000578364E070E00E947501A9A5BAA5199652
:103C90009C938E931897009709F04FC104C2E9A531
:103CA000FAA50084F185E02D298D3A8DE20FF31FEE
:103CB000FEA7EDA70BA51CA5F80181919191A191FB
:103CC000B1918F019C018D839E83AF83B887220FB2
:103CD000331FAFA5B8A9ED91FC91E20FF31F8081CE
:103CE0009181EDA5FEA591838083EBA5FCA5848140
:103CF0009581A681B78189839A83AB83BC8389A987
:103D00009AA962E070E00E947501ADA5BEA5139668
:103D10009C938E931297009709F4C5C1F8013496CD
:103D2000FCA7EBA71F8E18A219A21AA2F7C0EBA539
:103D3000FCA580819181A281B3819C018D839E83AA
:103D4000AF83B887220F331FADA5BEA512960D9184
:103D50001C911397020F131F81E090E068E070E060
:103D60000E947501F801808391838D819E81880F67
:103D7000991FADA5BEA51296ED91FC911397E80F82
:103D8000F91F608071806114710409F48CC10BA566
:103D90001CA50C5F1F4FEBA5FCA524813581468136
:103DA0005781C901D3012D933D934D935C93139794
:103DB00064E070E00E947501F301958384830097AD
:103DC00009F471C198012C5F3F4F3CA72BA7222417
:103DD000332421011CA21BA28AC0D30114960D908A
:103DE000BC91A02DEBA1FCA1AE0FBF1FBEA3ADA344
:103DF000DE011996EBA5FCA580E101900D928150A2
:103E0000E1F7AFA5B8A91496ED91FC911597208123
:103E10003181D9011696ED91FC91179789859A8584
:103E200053E0880F991F5A95E1F7A281B381A80F3B
:103E3000B91FED91FC911197F8A7EFA38D899E8989
:103E4000880F991FF90122813381280F391FF90149
:103E50004081518114968D919C911597892B19F46D
:103E600081E090E002C082E090E02BA53CA5205FBD
:103E70003F4F3CA72BA7849F7001859FF00C949F18
:103E8000F00C11240027F7FC0095102F29893A899E
:103E90004B895C89C801B7010E94C63B5B016C017C
:103EA0002D853E854F855889C801B7010E94C63BC4
:103EB0004FA158A5460F571FADA1BEA111965C9307
:103EC0004E931396BC92AE921297F301868197811E
:103ED0008A0D9B1D978386830894211C311C411CED
:103EE000511C2BA13CA12C5F3F4F3CA32BA3F30102
:103EF00080819181A281B381281639064A065B062A
:103F00000CF46BCF2F8D38A149A15AA12F5F3F4FE1
:103F10004F4F5F4F2F8F38A349A35AA389819A81AE
:103F2000AB81BC812F8D38A149A15AA1281739072F
:103F30004A075B070CF4FBCED8C0A7014C5F5F4F6C
:103F40005CA74BA71B8E1C8E1D8E1E8E1A8E198E83
:103F5000E9A5FAA584819581A681B7812B8D3C8D39
:103F60004D8D5E8D281739074A075B070CF497CEF5
:103F700089A99AA96EE070E00E947501A9A5BAA569
:103F80001A968C931A971B969C93442455242224AA
:103F900033246624772401E0C02ED12C5BC0EBA52E
:103FA000FCA580819181A281B3819C0189839A8340
:103FB000AB83BC83A9A5BAA51A964D915C911B97BA
:103FC000790137FD70C08A01060D171DF801D182F5
:103FD000C0822115310559F0C9010E949101D80113
:103FE00015969C938E931497009721F45CC0F8016A
:103FF000158214822BA53CA52C5F3F4F3CA72BA715
:10400000D8011396FC92EE92129714968D919C9182
:10401000159717969C938E93169719969C938E934B
:1040200018971B961C921E921A9720E030E0898107
:104030009A81AB81BC810097A105B10511F021E007
:1040400030E0420E531E0894211C311CEEE0F0E0DB
:104050006E0E7F1E29A93AA9221633060CF49FCFB3
:10406000A9A5BAA51D961C921E921C97C20113E029
:10407000880F991F1A95E1F70E949101E9A5FAA509
:10408000918B808B009779F0C201880F991F0E9455
:104090009101A9A5BAA51F969C938E931E97009790
:1040A00011F080E009C06BA97CA98DA99EA949A93E
:1040B0005AA90E94191C81E0E6960FB6F894DEBF5B
:1040C0000FBECDBFCF91DF911F910F91FF90EF9069
:1040D000DF90CF90BF90AF909F908F907F906F9028
:1040E0005F904F903F902F9008952B8D3C8D4D8D7C
:1040F0005E8D2F5F3F4F4F4F5F4F2B8F3C8F4D8F0C
:104100005E8F498D5A8D4C5F5F4F5A8F498F20CFFC
:104110002F923F924F925F926F927F928F929F92D7
:10412000AF92BF92CF92DF92EF92FF920F931F93C5
:10413000DF93CF93CDB7DEB72F970FB6F894DEBFDE
:104140000FBECDBF7C016B01DB0111968C918823E2
:1041500009F4E6C11A821B821C821D8219828EE735
:10416000F7018083818383E085878687108A17869D
:10417000128A118AD70153961D921D921D921C928C
:10418000569757961C9237010894611C711C32E0B7
:10419000432E512C4E0C5F1C23E0822E912C8E0C52
:1041A0009F1C9DE0A92EB12CAE0CBF1CFE013A96BF
:1041B000FF87EE8781E0282E312CC601BE016F5F9C
:1041C0007F4F21E030E040E050E08E010E5F1F4F56
:1041D0000E94FD27882309F0A4C18A819B81AC81BC
:1041E000BD810197A105B10551F0D70150961C92F0
:1041F0001E921F9752961C921E92519791C1F701E1
:10420000878590890297039708F587899981882384
:1042100029F0178AF0E29F27998318C09D3729F06B
:104220009E3741F0933091F408C0E1E0D7015796F2
:10423000EC93C3CFD7019C932BC0D70152961C920D
:104240001E92519750961C921E921F97F7018785D8
:1042500090898230910509F446C08330910534F489
:10426000009781F0019709F0A8CF27C0843091050D
:1042700009F4D6C0843091050CF463C0059709F0A9
:104280009CCF12C189818E3709F097CFD7018C93CB
:1042900052967C926E92519753968D919D910D906E
:1042A000BC91A02D0196A11DB11DF701838B948BAC
:1042B000A58BB68B308A278680CF89818E3709F00F
:1042C0002AC1D7015196ED91FC9152978083F70155
:1042D000138A148A158A168A82E090E0908B878769
:1042E000528A418A6ACFF70183899489A589B68960
:1042F0000097A105B10509F00EC189810188F289F5
:10430000E02D8193D7015296FC93EE9351975396EB
:104310008D919D910D90BC91A02D0196A11DB11D77
:10432000F701838B948BA58BB68B0197A105B10503
:1043300009F043CF83E090E0908B8787928A818A4F
:10434000ABC0F70183899489A589B6890497A10533
:10435000B10508F0E0C089810188F289E02D8193E0
:10436000D7015296FC93EE93519753968D919D9160
:104370000D90BC91A02D0196A11DB11DF701838B5D
:10438000948BA58BB68B0497A105B10509F015CFC9
:10439000D6012C911A861B861C861D86F40180810D
:1043A0009181A281B3818E839F83A887B9872223BD
:1043B00089F4DE011696FE013D968D91808331973A
:1043C0008E859F85A817B907C1F78A859B85AC851F
:1043D000BD8504C08E819F81A885B985F70183833F
:1043E0009483A583B683138A148A158A168A009744
:1043F000A105B10549F084E090E0908B8787878123
:104400009085928B818BD9CEE5E0F0E0D701509674
:10441000FC93EE931F975296BC92AE925197CDCEDD
:10442000D70153962D913D914D915C9156971396DE
:104430008D919D910D90BC91A02D281739074A07A9
:104440005B0708F068C08981D7015196ED91FC9116
:10445000529781935296FC93EE93519753968D9178
:104460009D910D90BC91A02D0196A11DB11DF7014C
:10447000838B948BA58BB68B2381348145815681A8
:1044800082179307A407B50709F097CE85E090E05F
:10449000908B8787B28AA18AD70153961D921D926D
:1044A0001D921C92569789CEF70183899489A5891C
:1044B000B6890297A105B10570F58981833059F558
:1044C0000188F289E02D8193D7015296FC93EE93F7
:1044D000519753968D919D910D90BC91A02D019671
:1044E000A11DB11DF701838B948BA58BB68B029711
:1044F000A105B10509F061CE86E090E0908B878739
:10450000128A118AD70153961D921D921D921C92F8
:10451000569780E006C0F701128A118A108A178622
:1045200081E02F960FB6F894DEBF0FBECDBFCF91BE
:10453000DF911F910F91FF90EF90DF90CF90BF9090
:10454000AF909F908F907F906F905F904F903F9033
:104550002F9008956F927F928F929F92AF92BF9209
:10456000CF92DF92EF92FF920F931F93DF93CF933F
:10457000CDB7DEB760970FB6F894DEBF0FBECDBFE4
:104580006C015B01DB0111968C91882309F4D4C086
:104590008EE7F6018083818383E085878687108A92
:1045A0001786128A118AD60153961D921D921D926A
:1045B0001C92569757961C92CB01B60122E030E030
:1045C00040E050E00E94A628882309F0B5C0F6011B
:1045D00082818E3729F0833019F08D3709F0C1C000
:1045E0008DE78987D60112968C9190E289278A8778
:1045F00022E030E040E050E0C501BE01675F7F4F40
:104600000E94A628882309F097C0F5012081F601B1
:1046100083819481A581B6818D839E83AF83B88782
:104620002223A9F4FE013896DE0111969E012C5F2B
:104630003F4F80818D933197E217F307D1F789813E
:104640009A81AB81BC818D839E83AF83B887BE0185
:104650006B5F7F4FDE01199624E030E040E050E0D0
:10466000EDE7FE2E90E28E01085F1F4FFB01808177
:104670008E3729F0833019F08D3709F078C0FD01AD
:10468000F192892711968C93DF0111962F5F3F4F8E
:104690004F4F5F4F6017710719F06F5F7F4FE6CF85
:1046A00069E0862E912C8C0E9D1EC501B4010E94DE
:1046B000A628882309F040C0EE24FF2487015DE787
:1046C000652E40E2742E22C0D6011796ED91FC9122
:1046D0001897EE0DFF1D80818E3729F0833019F079
:1046E0008D3709F046C06986808187258A8722E058
:1046F00030E040E050E0C501B4010E94A6288823C4
:10470000D9F40894E11CF11C011D111DF6018381EF
:104710009481A581B681E816F9060A071B07A0F265
:104720008DE090E0C80ED91EC501B60122E030E050
:1047300040E050E00E94A62860960FB6F894DEBFD5
:104740000FBECDBFCF91DF911F910F91FF90EF90E2
:10475000DF90CF90BF90AF909F908F907F906F90A1
:104760000895898721E030E040E050E045CF8D9307
:1047700091CF898721E030E040E050E0BCCF80E07D
:104780000895FB0120E0DC0111968D919C91129718
:10479000892B09F021E0208380E008951092E4063F
:1047A0000895FC01808108958DEE96E008950895A6
:1047B00008950F931F938C01FC01818192810E94C7
:1047C000B928F801128211821F910F910895CF9399
:1047D000DF93C0E0D0E081E090E06AE470E00E9406
:1047E0007501FC01009711F481E01DC0A091E7065E
:1047F000B091E8068091E5069091E606892BB1F428
:104800001097A1F4F093E806E093E706F093E6062C
:10481000E093E506E85BFF4F118210822196C530D8
:10482000D105C9F680E0DF91CF910895A85BBF4F15
:10483000ED93FC93F093E806E093E706EBCF4F92FD
:104840005F926F927F928F929F92AF92BF92CF9220
:10485000DF92EF92FF920F931F93DF93CF9300D0DD
:10486000CDB7DEB76C01562E472EF90158017A01FB
:104870004331510518F092E1E92EF12CF182E082EA
:1048800000E010E03E010894611C711C82E0882E5B
:10489000912C8C0E9D1E35C01982C601B3010E9459
:1048A0006428882309F052C08981882331F0C60129
:1048B0000E940F25882309F049C02091E706309116
:1048C000E8068091E5069091E606892BC1F4232B3A
:1048D000B1F4083C11051CF40F5F1F4F12C00E9479
:1048E000E723882399F5C60160E070E040E050E0DE
:1048F000940102E010E00E941F24882339F500E0B3
:1049000010E08091E406882321F082E0A816B1042B
:1049100019F6C701AA2797FDA095BA2F80930B0718
:1049200090930C07A0930D07B0930E07A0920A076F
:1049300080910F0790911007652D742DA7010E949B
:10494000930288E097E0B6010E94AA220F900F9090
:104950000F90CF91DF911F910F91FF90EF90DF901B
:10496000CF90BF90AF909F908F907F906F905F900F
:104970004F9008953F924F925F926F927F928F92E5
:104980009F92AF92BF92CF92DF92EF92FF920F93DE
:104990001F93DF93CF930F920F92CDB7DEB76B01CA
:1049A0004A013901FC01A180B2801A821982EE24E9
:1049B000FF242E010894411C511C3324339414C04D
:1049C000B4016E0D7F1DA6014E195F09C50192014C
:1049D00001E010E00E941F24882369F489819A81F4
:1049E000E80EF91E3092E406EC14FD044CF3F301DA
:1049F000D182C08280E00F900F90CF91DF911F9104
:104A00000F91FF90EF90DF90CF90BF90AF909F906D
:104A10008F907F906F905F904F903F900895AF92EE
:104A2000BF92DF92EF92FF920F931F93DF93CF938A
:104A30000F920F92CDB7DEB75C0180EF96E0B50123
:104A40000E948820D82E882309F066C08091F20643
:104A5000823019F41092E4065FC06091F7067091FD
:104A6000F806E090F306F090F4060091E506109148
:104A7000E6068091E7069091E8060115110509F018
:104A800058C0892B09F055C00BC01092E80610924F
:104A9000E706085B1F4FF80111821082085410408E
:104AA000C801A7010E949302005C1F4FC701AA27FB
:104AB00097FDA095BA2FF80181939193A193B1939B
:104AC0008F01108211821282138204541040E091EF
:104AD000EB06F091EC068091E9069091EA06892BAD
:104AE000B9F53097A9F51093EC060093EB061093F7
:104AF000EA060093E906085B1F4FF8011182108255
:104B00002091E7063091E8068091E5069091E6064F
:104B1000892B39F5232B29F58D2D0F900F90CF91EF
:104B2000DF911F910F91FF90EF90DF90BF90AF90BA
:104B30000895085B1F4FF80180819181085410404F
:104B40009093E6068093E506892B09F0A2CF9DCFCE
:104B5000E85BFF4F118300831093EC060093EB0694
:104B6000CACFC50160E070E040E050E09E012F5FD9
:104B70003F4F02E010E00E941F24D82ECDCF8F922D
:104B80009F92AF92BF92CF92DF92EF92FF920F93DC
:104B90001F93DF93CF930F920F92CDB7DEB76C01C7
:104BA0005B017A01922E832EFC01018112812091FA
:104BB000EB063091EC068091E9069091EA06892B8C
:104BC00019F5232B09F51982C801BE016F5F7F4FCC
:104BD0000E946428882309F0C4C08981882309F4CD
:104BE000E6C0C8010E940F25882309F0BAC02091B1
:104BF000EB063091EC068091E9069091EA06892B4C
:104C000019F4232B09F4D3C0F601C180D28006C069
:104C1000C6010E940F25882309F0A3C00091E90670
:104C20001091EA060115110599F30C5B1F4FF8016D
:104C3000208131814281538104501040F8018081EC
:104C4000918100541040821B930BA816B90624F0E2
:104C5000F7019183808303C0F701B182A082200F06
:104C6000311FF70140815181892D982DB9010E9492
:104C70009302F70120813181442737FD4095542F5D
:104C8000F801EC5BFF4F80819181A281B381280FF5
:104C9000391F4A1F5B1F2083318342835383005C8B
:104CA0001F4FF80180819181A281B381005410408F
:104CB000281739074A075B0709F052C04091E506FB
:104CC0005091E606A091E706B091E806411551051E
:104CD00011F020E004C020E0109709F421E0005C0E
:104CE0001F4FF801119211921192119210821182AC
:104CF00012821382E091E906F091EA068091EB06B8
:104D00009091EC063097E1F5892BD1F50AC010920D
:104D1000EC061092EB06E85BFF4F11821082E8541C
:104D2000F040452BD9F51097C9F5F093E806E093CC
:104D3000E706F093E606E093E506E85BFF4F118295
:104D40001082222369F0C60160E070E040E050E08C
:104D50009E012F5F3F4F02E010E00E941F2401C020
:104D600080E00F900F90CF91DF911F910F91FF90F6
:104D7000EF90DF90CF90BF90AF909F908F9008956D
:104D8000E85BFF4F80819181E854F0409093EA0600
:104D90008093E906892B09F0BECFB9CFA85BBF4F3E
:104DA000ED93FC93F093E806E093E706C6CFF70196
:104DB00011821082D5CF1F930DC01092E806109279
:104DC000E706E85BFF4F11821082E854F040CF0104
:104DD0000E943B02E091E506F091E6068091E7062D
:104DE0009091E806309709F04BC0892B09F048C034
:104DF0000DC01092EC061092EB06E85BFF4F11829B
:104E00001082E854F040CF010E943B02E091E90695
:104E1000F091EA068091EB069091EC063097F1F55F
:104E2000892BE1F58091F7069091F8060E943B02EC
:104E300018E1E0EFF6E0DF01812F1D928A95E9F796
:104E400080910F07909110070E943B02E8E0F7E085
:104E5000DF011D921A95E9F71092EC061092EB060D
:104E60001092EA061092E9061092E8061092E70600
:104E70001092E6061092E5061092E4061F9108953E
:104E8000E85BFF4F80819181E854F0409093E60603
:104E90008093E506892B09F094CF8FCFE85BFF4F15
:104EA00080819181E854F0409093EA068093E9066E
:104EB000892B09F0A2CF9DCF8F929F92AF92BF9284
:104EC000CF92DF92EF92FF920F931F93CF93DF93D6
:104ED0005C016B01942E852E842F952F9C01E90196
:104EE00001E010E00FC08A819B810F5F1F4F009788
:104EF00041F06BE372E00E94A302009711F41B8261
:104F00001A8222960C151D0574F381E0F501808349
:104F10000E94F527EC010097C9F10E94DB2680E48E
:104F200090E00E9491019093100780930F070097E3
:104F300059F120E4E22EF12C012D112DE092110700
:104F4000F0921207009313071093140780E490E087
:104F50000E9491019093F8068093F7060097A1F0C4
:104F6000E092F906F092FA060093FB061093FC0615
:104F70000E94E723882341F4CE01B601492D582D24
:104F80000E94D928882311F0C0E0D0E0F501D28337
:104F9000C183CD2B19F42EE332E002C020E030E0D3
:104FA000C901DF91CF911F910F91FF90EF90DF909A
:104FB000CF90BF90AF909F908F9008950F931F93C5
:104FC000CF93DF938C01FC01C181D281209741F006
:104FD0000E94DB26CE010E94B928F80112821182BC
:104FE000DF91CF911F910F91089581E08093200769
:104FF0001092210780E297E008958F929F92AF92DE
:10500000BF92CF92DF92EF92FF920F931F93CF93B5
:10501000DF935B0169017A014801F8011082118276
:1050200012821382FC0181818823C9F1E091220759
:10503000F09123078285882331F1E90190E08217FE
:10504000930708F4EC01238530E02E5F3F4F2E0FCD
:105050003F1FC501B901AE010E949302E0912207F2
:10506000F091230782858C1B828783858C0F838731
:10507000AC0EBD1ECE01A0E0B0E0A7019601281B3A
:10508000390B4A0B5B0BE0912207F09123078081DB
:105090009181B5010E9417298F5F9F4F11F481E024
:1050A00006C0F401C082D182E282F38280E0DF9107
:1050B000CF911F910F91FF90EF90DF90CF90BF9015
:1050C000AF909F908F9008950F931F93DF93CF938E
:1050D0000F920F92CDB7DEB78B01DC0111968C9148
:1050E0008823E1F01A821982E0912207F0912307C8
:1050F0008285882321F081E0FB0180831FC0DB01D2
:105100001C9281919191BF0148E050E09E012F5F78
:105110003F4F0E94640B8F5F9F4F11F481E00FC0DF
:1051200089819A81892B51F081E0F8018083E09197
:105130002207F091230789818287138680E00F90F0
:105140000F90CF91DF911F910F910895FC01818104
:10515000882361F0E0912207F091230780819181FB
:105160000E946C2920E08F5F9F4F09F421E0822F7D
:105170000895CF93DF93FC0181818823B1F01182E0
:10518000E0912207F0912307808191810E94610BB9
:10519000EC018091220790912307009711F00E9463
:1051A0003B0280E0CF5FDF4F09F481E0DF91CF91D8
:1051B0000895CF92DF92EF92FF920F931F93CF93B8
:1051C000DF938C017B016A01FC018181882329F531
:1051D00081E090E06CE070E00E947501EC0190933A
:1051E0002307809322070097C1F01A861B8681E06F
:1051F000F8018183C701B6010E94AD0B99838883B2
:10520000E0912207F0912307808191818F5F9F4F6A
:1052100011F080E003C0F801118281E0DF91CF91AD
:105220001F910F91FF90EF90DF90CF9008958F9294
:105230009F92AF92BF92CF92DF92EF92FF920F9325
:105240001F93DF93CF930F920F92CDB7DEB75C0120
:1052500079018A016B0140E050E04E010894811C05
:10526000911C25C0A801970180E0E81680E0F806AF
:1052700081E0080780E0180720F02FEF3FEF40E0C3
:1052800050E0C501B601A90194010E94640BAC0174
:105290008FEF4F3F580781F029813A81C901A0E083
:1052A000B0E0E81AF90A0A0B1B0BC20ED31EE11478
:1052B000F10401051105B1F6CA010F900F90CF91CD
:1052C000DF911F910F91FF90EF90DF90CF90BF90F3
:1052D000AF909F908F9008958F929F92AF92BF92C0
:1052E000CF92DF92EF92FF920F931F93DF93CF93B2
:1052F0000F920F92CDB7DEB75C0179018A016B0185
:1053000040E050E04E010894811C911C25C0A8018A
:10531000970180E0E81680E0F80681E0080780E069
:10532000180720F02FEF3FEF40E050E0C501B60135
:10533000A90194010E94990BAC018FEF4F3F5807D0
:1053400081F029813A81C901A0E0B0E0E81AF90AA8
:105350000A0B1B0BC20ED31EE114F104010511054B
:10536000B1F6CA010F900F90CF91DF911F910F916D
:10537000FF90EF90DF90CF90BF90AF909F908F9075
:105380000895DF93CF930F92CDB7DEB7FC01698309
:10539000809169078823C9F080916807803238F0CE
:1053A00081E090E09383828320E030E01AC0809116
:1053B0006707E82FF0E0E95BF84F998190838F5FF2
:1053C00080936707809368070AC080911008843033
:1053D00031F481E08093350889818093380821E099
:1053E00030E0C9010F90CF91DF910895CF92DF9205
:1053F000EF92FF920F931F93CF93DF936C018B017A
:105400007A01809169078823A1F0C0E0D0E00DC047
:10541000D601ED91FC91D801AC0FBD1F0190F08138
:10542000E02DC6016C9119952196CE15DF0580F30C
:1054300013C0413288F480911008843069F4E092FE
:105440003508562FA8E3B8E0FB0102C081918D9387
:105450008E2F851B8417D0F3C701DF91CF911F9149
:105460000F91FF90EF90DF90CF9008952091450726
:1054700030E080914407281B3109C901089540910B
:10548000440780914507481718F02FEF3FEF0AC0F7
:10549000E42FF0E0EC5DF84F8081282F30E04F5F83
:1054A00040934407C9010895E0914407809145075E
:1054B000E81718F0EFEFFFEF06C0F0E0EC5DF84FF3
:1054C0008081E82FF0E0CF0108950895982F4132B0
:1054D00010F040E030C0809110088823E1F781E0AF
:1054E000809310088FEF80930F081092ED074150C2
:1054F0004093EE074F5F990F91609093EC0785EE14
:105500008093BC00809110088130E1F38091ED0719
:10551000841710F44091ED0720E030E00AC0FB0151
:10552000E20FF31FD901A151B84F8C9180832F5FF7
:105530003F4F2417A0F3842F0895413208F040E232
:10554000862F64E277E00E94662A109244078093D7
:10555000450708951F93582F122F413210F081E014
:1055600035C0809110088823E1F782E0809310080D
:105570008FEF80930F081092ED074093EE07AFEE88
:10558000B7E0FB0102C081918D938E2F861B84179B
:10559000D0F3852F90E0880F991F8093EC0785EE5C
:1055A0008093BC001123A1F080911008823081F417
:1055B000FBCF80910F08803211F482E007C0809108
:1055C0000F08803311F084E001C083E01F9108953B
:1055D00080910F088F3F69F780E0F8CF80914607F0
:1055E00067E477E04091680721E00E94AA2A1092C0
:1055F0006707109268071092690708951F920F922B
:105600000FB60F920BB60F9211242F933F934F9327
:105610005F936F937F938F939F93AF93BF93EF931A
:10562000FF938091B90090E0887F9070803691055B
:1056300009F4DCC081369105CCF58832910509F476
:105640007BC089329105B4F48031910509F46FC0B3
:10565000813191053CF4009709F431C1089709F0B4
:1056600039C165C08831910509F466C0809709F099
:1056700031C17DC08034910509F49FC0813491050A
:1056800044F48033910509F47DC0C89709F022C124
:1056900084C08035910509F484C08835910509F4EA
:1056A00091C08834910509F015C198C088399105D9
:1056B00009F4FDC089399105ECF48837910509F4A6
:1056C00095C0893791054CF48836910509F48EC050
:1056D0008037910509F0FEC089C08838910509F42A
:1056E000E6C08039910509F487C08038910509F03A
:1056F000F1C082C0803B910509F4B0C0813B9105A7
:105700004CF4803A910509F489C0883A910509F072
:10571000E1C0A4C0803C910509F4CDC0883C91054E
:1057200009F4C9C0883B910509F0D4C0ACC0809190
:10573000EC078093BB00B9C09091ED078091EE0714
:10574000981768F49091ED07E92FF0E0E151F84FD8
:1057500080818093BB009F5F9093ED07A6C085ED8D
:105760008093BC008091BC0084FDFCCFB1C080E27E
:1057700080930F0885ED8093BC008091BC0084FD70
:10578000FCCFA6C080E380930F0885ED8093BC001A
:105790008091BC0084FDFCCF9BC088E380930F0800
:1057A0008AC08091ED079091BB00E82FF0E0E151B5
:1057B000F84F90838F5F8093ED079091ED07809174
:1057C000EE0771C08091ED079091BB00E82FF0E0EB
:1057D000E151F84F90838F5F8093ED0785ED8093C3
:1057E000BC008091BC0084FDFCCF72C083E080933C
:1057F00010081092110859C080911108803208F0E9
:1058000056C0809111089091BB00E82FF0E0EE5E49
:10581000F74F90838F5F8093110847C080911108E4
:10582000803230F4E0911108F0E0EE5EF74F108224
:1058300085ED8093BC008091BC0084FDFCCF10926C
:10584000100860911108E0913208F091330882E16C
:1058500098E070E01995109211082DC084E08093B3
:1058600010081092340810923508E0913608F09133
:105870003708199580913508882329F481E08093B1
:1058800035081092380890913408E92FF0E0E85C70
:10589000F74F80818093BB009F5F90933408909175
:1058A000340880913508981710F485EC01C085E81C
:1058B0008093BC000FC085EC8093BC0009C010929F
:1058C0000F0885ED8093BC008091BC0084FDFCCF67
:1058D00010921008FF91EF91BF91AF919F918F911E
:1058E0007F916F915F914F913F912F910F900BBEE0
:1058F0000F900FBE0F901F9018950F931F93CF938B
:10590000DF93FC01738D76957170A685B7859585BB
:10591000772329F08C91892309F454C004C08C9119
:10592000892309F04FC08389948920E001972FEFE4
:105930008F3F9207D9F7C589D689A685B785158582
:1059400060E031E040E050E000E0CE01202F019720
:105950002FEF8F3F9207D9F78C91812311F0632BA2
:1059600003C0832F80956823330F4F5F5F4F48300C
:10597000510559F78789908D20E001972FEF8F3FD0
:105980009207D9F7711160958091B8072091B907F6
:1059900090E001968F73907030E08217930779F052
:1059A000E091B807F0E0E858F84F60838091B807BD
:1059B00090E001968F7390708093B80703C0838D39
:1059C0008160838FDF91CF911F910F9108951F9276
:1059D0000F920FB60F920BB60F9211242F933F9395
:1059E0004F935F936F937F938F939F93AF93BF93E7
:1059F000EF93FF938091760790917707009711F0CE
:105A00000E947D2CFF91EF91BF91AF919F918F915B
:105A10007F916F915F914F913F912F910F900BBEAE
:105A20000F900FBE0F901F9018951F920F920FB6F8
:105A30000F920BB60F9211242F933F934F935F93C6
:105A40006F937F938F939F93AF93BF93EF93FF9346
:105A50008091760790917707009711F00E947D2C36
:105A6000FF91EF91BF91AF919F918F917F916F9136
:105A70005F914F913F912F910F900BBE0F900FBEF2
:105A80000F901F9018951F920F920FB60F920BB6A2
:105A90000F9211242F933F934F935F936F937F93B4
:105AA0008F939F93AF93BF93EF93FF93809176076C
:105AB00090917707009711F00E947D2CFF91EF9154
:105AC000BF91AF919F918F917F916F915F914F9116
:105AD0003F912F910F900BBE0F900FBE0F901F9014
